:020000040000FA
:060000000A128A110C280F
:10000800FE00030EF0000A08F1000A128A11202AE5
:100018000A128A110F2883134F30FD000230FE00A8
:10002800F930FF00483084000A128A11BD220A12F2
:100038008A112030840038300A128A11E9220A1203
:100048008A11F901FA01FB0183010A128A114D2A6A
:10005800F40183120313BB1F322833284028B80940
:10006800B909BA09BB09B80A0319B90A0319BA0ABE
:100078000319BB0AF401F40ABF1F43284428532874
:10008800BC09BD09BE09BF09BC0A0319BD0A031989
:10009800BE0A0319BF0A0130F2007208F4060030E4
:1000A800F8000030F7000030F6000030F5003B089B
:1000B8003A0439043804031962286328B028F30184
:1000C800F30A73280130F2000310B80DB90DBA0D08
:1000D800BB0DF20B68280130F2007208F307BB1F52
:1000E8007628772866280130F2000310F50DF60D02
:1000F800F70DF80DF20B79283B083F02031D8E28F7
:100108003A083E02031D8E2839083D02031D8E2839
:1001180038083C02031C91289228A1283808BC0200
:100128003908031C390FBD023A08031C3A0FBE02F6
:100138003B08031C3B0FBF02751401300310BB0CB6
:10014800BA0CB90CB80CFF3E031DA2280130F3020B
:10015800031DAF28B028772874080319B428B528D8
:10016800C028F509F609F709F809F50A0319F60A86
:100178000319F70A0319F80A7808BB007708BA00C8
:100188007608B9007508B8000800831203138501C2
:10019800FF30831603138800FF308312031388008F
:1001A800FB01831203130608073886007B08113EFB
:1001B80084000A128A11A0220A128A11F60076080F
:1001C8008605FA017A080D3E84000A128A11A022D7
:1001D8000A128A118312031308050319F428F52853
:1001E800FA2837080319F928FA284229B701B70A63
:1001F8007A080D3E84000A128A11A0220A128A1176
:100208000805031D0829092942292B08803AFF00FF
:1002180080307F02031D122902302A02031C15298F
:10022800162942297B08F60002300310F60DFF3E1E
:10023800031D19297A087607F7007708F900831251
:100248000313B701AA01AB017908013E84000A1221
:100258008A11A0220A128A110A128A11DD220A12B0
:100268008A117908013E84000A128A11A0220A1212
:100278008A110A128A11F1220A128A110130F60033
:100288007608FA0704307A02031C4B294C29E62821
:100298000130F6007608FB0703307B02031C552962
:1002A8005629D5280800831203138901D030F60097
:1002B800C930F500F50B5E29F60B5E296329831218
:1002C800031309080238890038300A128A11782283
:1002D8000A128A113430F600F130F500F50B722954
:1002E800F60B7229772938300A128A1178220A12F5
:1002F8008A110B30F6006230F500F50B8129F60BF8
:100308008129000038300A128A1178220A128A11CB
:1003180008300A128A1178220A128A110F300A123A
:100328008A1178220A128A1101300A128A11782257
:100338000A128A110E300A128A1178220A128A11B8
:1003480080300A128A1178220A128A1108000130B4
:1003580083120313C700E830C6004830C5000030D8
:10036800C400831603139816BF3083120313C0000A
:1003780040088316031387058717831203139817FA
:1003880018164408C0004508C1004608C2004708BE
:10039800C30006300310C00DC10DC20DC30DFF3ED2
:1003A800031DCE294308BB004208BA004108B90022
:1003B8004008B8000130BF00E830BE004830BD003A
:1003C8000030BC000A128A112C200A128A118312EA
:1003D80003133808FF3E8316031399000800F4003E
:1003E800831203130908023889008316031388014E
:1003F8007408831203138800090804388900203020
:10040800F3002930F200F20B072AF30B072A0C2A13
:10041800831203130908FD3989002030F3002930BD
:10042800F200F20B152AF30B152A1A2A831203136A
:1004380009080238890008000B1D232A242A3A2AB1
:10044800013083120313AE070318AF0A0030AF0759
:1004580037080319302A312A372A0130AA07031826
:10046800AB0A0030AB070B08FB398B008312031370
:100478008C1C3F2A402A462A0C08FD390319452AB4
:10048800462A402A71088A00700E8300FE0E7E0EEE
:1004980009000A128A11CC220A128A110A128A1138
:1004A800AB210A128A110A128A1157210A128A11DB
:1004B800831203132F08803AFF0080307F02031D48
:1004C800672A33302E02031C6A2A6B2A5C2A0A1216
:1004D8008A11C9200A128A1183120313AE01AF01CF
:1004E8005C2A0A128A110C28F400831203130908E3
:1004F80002388900740888000908FB39890020300F
:10050800F3002930F200F20B872AF30B872A8C2A92
:10051800831203130908FD3989002030F3002930BC
:10052800F200F20B952AF30B952A9A2A83120313E9
:10053800090802388900080002308A000408840A81
:10054800820700343134343437342A343234353481
:1005580038343034333436343934233408340434BA
:1005680002340134FE34FD34FB347E088A007F08EF
:1005780082000A128A11B9220A128A118000840A9A
:1005880004087D0603190034FF0A0319FE0ABD2A70
:10059800831603138801890186018501E4308B00E5
:1005A80022308C00063081008330831203138100CF
:1005B8000800F200831203130C08DF390319E52A37
:1005C800E62ADE2A72089900080064008001840A7D
:1005D8000406031900340406EA2AF50075080A120D
:1005E8008A11F3210A128A110800FF34FF34FF34FC
:0805F800FF341E34003401340D
:02400E00F23F7F
:00000001FF
