:020000040000FA
:060000000A128A110C280F
:10000800FE00030EF0000A08F1000A128A11952A70
:100018000A128A110F2883136830FD000230FE008F
:10002800EB30FF00603084000A128A11B5220A12F0
:100038008A11203084004D300A128A11F3220A12E4
:100048008A11FA01FB0183010A128A112B280A126C
:100058008A11D6220A128A110A128A11C4220A1295
:100068008A110A128A1107210A128A1100300A120B
:100078008A1171220A128A11730883120313D60097
:100088007208D5000030D700D800FF30D9000330FF
:10009800DA000030DB00DC000730DD000030DE0075
:1000A8000A128A119F210A128A1183120313560811
:1000B800E3005508E20063086506031D6528620829
:1000C8006406031968286928902880300A128A1162
:1000D800FF210A128A11831203136208303EF900C5
:1000E8007908DF003A300A128A1127220A128A1187
:1000F80085300A128A11FF210A128A11831203130A
:100108005F080A128A11FB220A128A11831203134A
:100118006308E5006208E4000A128A11E2220A1262
:100128008A11F900790883120313E6003A280A12A3
:100138008A110C2883120313D201CE1FA428A528E4
:10014800AC28CD09CE09CD0A0319CE0AD201D20AAC
:10015800D01FAF28B028B928CF09D009CF0A031972
:10016800D00A0130F8007808D206D301D4014D082E
:100178004E040319C028C128F828D101D10ACF2874
:1001880001300310CD0DCE0DFF3E031DC5280130F3
:10019800F8007808D107CE1FD228D328C428013008
:1001A8000310D30DD40DFF3E031DD4284E08500272
:1001B800031DE0284D084F02031CE328E428EB2820
:1001C8004D08CF024E08031CD003D002531401304F
:1001D8000310CE0CCD0CFF3E031DEC280130D102DC
:1001E800031DF728F828D32852080319FC28FD28EE
:1001F8000229D309D409D30A0319D40A5408CE0012
:100208005308CD0008008312031309080239890036
:100218000908043989006830F600E430F500F50B68
:100228001329F60B13290000831203130908023857
:10023800890038300A128A11FF210A128A111A30ED
:10024800F600F830F500F50B2729F60B27290000F2
:1002580038300A128A11FF210A128A110630F60074
:100268003030F500F50B3629F60B3629000038300A
:100278000A128A11FF210A128A110F300A128A11F2
:10028800FF210A128A1101300A128A11FF210A126B
:100298008A110E300A128A11FF210A128A1180303F
:1002A8000A128A11FF210A128A11080001308A00F5
:1002B8000408840A820700340134043407342A34D9
:1002C8000234053408340034033406340934233442
:1002D8003F3406345B344F3466346D347D34073430
:1002E8007F346F3430343134323433343434353449
:1002F8003634373438343934083404340234013469
:100308003134323433343434FE34FD34FB34433442
:1003180048344934553453344F340034413450341C
:100328004534523454344F340034503431342D343D
:100338003E34203400348312031357085902CD0089
:100348005808031C580A5A02CE0057085502F200F2
:100358005808031C580A5602F3005B085D02F400B3
:100368005C08031C5C0A5E02F5000A128A114C2222
:100378000A128A11730883120313D0007208CF007F
:100388000A128A119E200A128A11831203135B082B
:100398004D07D5005C0803185C0A4E07D600080014
:1003A800F400831603138801831203130908023823
:1003B8008900740888000908043889001030F3009F
:1003C8009430F200F20BE629F30BE62900008312C1
:1003D80003130908FD3989001030F3009430F20046
:1003E800F20BF429F30BF429000083120313090814
:1003F800023889000800F400831203130908023840
:100408008900740888000908FB3989001030F30056
:100418009430F200F20B0E2AF30B0E2A000083121E
:1004280003130908FD3989001030F3009430F200F5
:10043800F20B1C2AF30B1C2A000083120313090871
:10044800023889000800F700F501F6013E2A750810
:10045800770784000A128A115A210A128A110A128D
:100468008A11D4210A128A110130F5070318F60AF5
:100478000030F6077508770784000A128A115A2196
:100488000A128A11003A031D4A2A4B2A2B2A08000D
:10049800F601F701721C512A522A582A7408F607E5
:1004A8000318F70A7508F70701300310F40DF50D66
:1004B800FF3E031D592A01300310F30CF20CFF3ED6
:1004C800031D602A72087304031D6B2A6C2A4E2AC6
:1004D8007708F3007608F2000800F5008316031386
:1004E8000508043885007508F40002300310F40D7F
:1004F800FF3E031D7A2A0310740D831203131F0491
:100508009F001F0804389F001F08FB3903198D2A14
:100518008E2A882A1E08F300831603131E08F20089
:1005280008000B1D982A992AAA2A7A0803199D2AD5
:100538009E2AA72A013083120313C4070318C50A89
:100548000030C507FA010B08FB398B0071088A00D7
:10055800700E8300FE0E7E0E09007E088A007F085A
:1005680082000A128A11B1220A128A118000840AB2
:1005780004087D0603190034FF0A0319FE0AB52A88
:10058800FF308316031385008130831203139F0005
:100598008E30831603139F001A30F200F20BD22A12
:1005A80000000800831603138901A0308B00053072
:1005B8008100063083120313810008000F30F20017
:1005C8007208831603138804860163300800FF3419
:1005D800FF34FF34FF34FF34FF34FF3463346400E6
:1005E8008001840A0406031900340406F42AF5007D
:0E05F80075080A128A11D4210A128A1108000D
:02400E00F23F7F
:00000001FF
