:020000040000FA
:060000000A128A110C280F
:10000800FE00030EF0000A08F1000A128A15012DFD
:100018000A128A110F288313B730FD000C30FE0036
:100028000A30FF00A03084000A128A15FB230A1246
:100038008A117030FD000B30FE00C330FF006D30B8
:1000480084000A128A15FB230A128A11B730840029
:10005800C6300A128A15CE230A128A116430840027
:100068006D300A128A15CE230A128A11FA01FB0191
:1000780083010A128A11842D8312031329088039F7
:10008800AE002E08B3002908AE002E07AF002F08D7
:10009800B900A81F502851285228391439080319C3
:1000A800562857286628390A031D5B285C286428C7
:1000B8000030A9000030A8000030A7000030A600DA
:1000C800A8176E280030A9000030A8000030A7004B
:1000D8000030A6002D088039AE002E08B3062D0882
:1000E800AE002E07AF002F08B400AC1F7C287D2877
:1000F8007E28341434080319822883289228340A65
:10010800031D8728882890280030AD000030AC00F7
:100118000030AB000030AA00AC179A280030AD00C0
:100128000030AC000030AB000030AA0034080319DE
:100138009E289F28A4283908031DA328A428AD2891
:100148000030A9000030A8000030A7000030A60049
:10015800A02B2608AE002E08F2002C080A128A15D9
:10016800D8240A128A11730883120313BF00720875
:10017800BE003E08AE00AF01B001B1013108B800C1
:100188003008B7002F08B6002E08B5003F08AE00AB
:10019800AF01B001B1013108BD003008BC002F0823
:1001A800BB002E08BA002708AE002E08F2002B0864
:1001B8000A128A15D8240A128A11730883120313A3
:1001C800BF007208BE003E08AE00AF01B001B10129
:1001D8002E08B5072F0803110318013E0319F52847
:1001E800B607300803110318013E0319FC28B707A6
:1001F800310803110318013E03190329B8073F0802
:10020800AE00AF01B001B1012E08BA072F080311E3
:100218000318013E03191129BB07300803110318FD
:10022800013E03191829BC07310803110318013EC0
:1002380003191F29BD072808AE002E08F2002A0856
:100248000A128A15D8240A128A1173088312031312
:10025800BF007208BE003E08AE00AF01B001B10198
:100268002E08B5072F0803110318013E03193D296D
:10027800B607300803110318013E03194429B707CC
:10028800310803110318013E03194B29B8073F0829
:10029800AE00AF01B001B1012E08BA072F08031153
:1002A8000318013E03195929BB0730080311031825
:1002B800013E03196029BC07310803110318013EE8
:1002C80003196729BD070830AE000310B50DB60D38
:1002D800B70DB80DAE0B69292708AE002E08F2003D
:1002E8002A080A128A15D8240A128A117308831256
:1002F8000313BF007208BE003E08AE003F08AF00FF
:10030800B001B1012E08B5072F0803110318013EEB
:1003180003198F29B607300803110318013E031982
:100328009629B707310803110318013E03199D29BF
:10033800B8072608AE002E08F2002B080A128A1504
:10034800D8240A128A11730883120313BF00720893
:10035800BE003E08AE003F08AF00B001B1012E0854
:10036800B5072F0803110318013E0319BC29B60766
:10037800300803110318013E0319C329B7073108D0
:1003880003110318013E0319CA29B8070830AE0043
:100398000310B50DB60DB70DB80DAE0BCC29260858
:1003A800AE002E08F2002A080A128A15D8240A126A
:1003B8008A11730883120313BF007208BE003E0837
:1003C800AE003F08AF00B001B1012E08B5072F08F5
:1003D80003110318013E0319F229B6073008031167
:1003E8000318013E0319F929B70731080311031847
:1003F800013E0319002AB8072708AE002E08F200AC
:100408002C080A128A15D8240A128A117308831232
:100418000313BF007208BE003E08AE003F08AF00DD
:10042800B001B1012E08BA072F0803110318013EC5
:1004380003191F2ABB07300803110318013E0319CB
:10044800262ABC07310803110318013E03192D2A77
:10045800BD072808AE002E08F2002B080A128A15DC
:10046800D8240A128A11730883120313BF00720872
:10047800BE003E08AE003F08AF00B001B1012E0833
:10048800BA072F0803110318013E03194C2ABB07AA
:10049800300803110318013E0319532ABC07310819
:1004A80003110318013E03195A2ABD072808AE0094
:1004B8002E08F2002C080A128A15D8240A128A116A
:1004C800730883120313BF007208BE003E08AE0013
:1004D8003F08AF00B001B10108300310AE0DAF0DF9
:1004E800B00DB10DFF3E031D712A2E08BA072F0863
:1004F80003110318013E0319822ABB0730080311B0
:100508000318013E0319892ABC073108031103188F
:10051800013E0319902ABD073508AE003608AF0022
:100528003708B0003808B10018300310B10CB00C0F
:10053800AF0CAE0CFF3E031D992A2E08BA072F08F0
:1005480003110318013E0319AA2ABB073008031137
:100558000318013E0319B12ABC0731080311031817
:10056800013E0319B82ABD070830AE000310B50DC7
:10057800B60DB70DB80DAE0BBA2A39083407AE0060
:10058800AF01AF0D2E08823EBE002F080318013EB2
:10059800FF3EBF00EC2A0130AE000310BA0DBB0DC0
:1005A800BC0DBD0DAE0BD12AB81FDB2ADC2ADD2A13
:1005B8003A140130AE000310B50DB60DB70DB80DE5
:1005C800AE0BDF2AFF30BE070318BF0AFF30BF0794
:1005D800BC1FEF2AF02ACF2AB401B81FF42AF52A43
:1005E800112BFF303505AE00FF303605AF00FF3068
:1005F8003705B0007F303805B100310830042F04CA
:100608002E040319082B092B0C2BB401B40A112B47
:100618003A1C0F2B102B112B092B34080319152BFF
:10062800162B472B0130BA07003003180130BB07DF
:10063800003003180130BC07003003180130BD0733
:100648003D1C272B282B472B3A08AE003B08AF0050
:100658003C08B0003D08B1000130B200310DB10CCA
:10066800B00CAF0CAE0CB20B322B3108BD00300809
:10067800BC002F08BB002E08BA000130BE070318C3
:10068800BF0A0030BF073F08803AFF0080307F0272
:10069800031D502BFF303E02031C532B542B5F2BA2
:1006A8007F3083120313BD008030BC000030BB00D4
:1006B8000030BA00942B831203133F08803AFF00DE
:1006C80080307F02031D6A2B01303E0203186D2B18
:1006D8006E2B7A2B003083120313BD000030BC0050
:1006E8000030BB000030BA00B301942B831203130F
:1006F8003E08AE002E08B900FF30BA05FF30BB0532
:100708007F30BC050030BD05391C8B2B8C2B8D2B05
:10071800BC173908AE0003102E0CAF002F08BD001F
:100728003308AE002E08BD043D08A9003C08A80007
:100738003B08A7003A08A600080079088039831208
:100748000313A0002008A9007908A0002007A10031
:100758002108B000F81FB12BB22BB32B301430088E
:100768000319B72BB82BC82B300A031DBC2BBD2B84
:10077800C52B0030F9000030F8000030F7000030D9
:10078800F600F817F901D02B0030F9000030F80016
:100798000030F7000030F60075088039A000200806
:1007A800A9067508A0002007A1002108B100F41FC0
:1007B800DE2BDF2BE02B311431080319E42BE52B5A
:1007C800F52B310A031DE92BEA2BF22B0030F5003B
:1007D8000030F4000030F3000030F200F417F501A7
:1007E800FD2B0030F5000030F4000030F30000303D
:1007F800F2007508740473047204031D042C052C9C
:100808001E2C0030F9000030F8000030F7000030EE
:10081800F6008030F8047F30F9042908A000200889
:10082800F9047908F5007808F4007708F3007608E9
:10083800F200832D3008031D222C232C2C2C003091
:10084800F5000030F4000030F3000030F200832D92
:100858003008A000A1012108A30031082002A2004D
:10086800031CA30322087F3EAA0023080318013EA5
:10087800003EAB007908A8007808A7007708A60012
:100888007608A5000030F9000030F8000030F700C5
:100898000030F6000030AF000030AE000030AD0090
:1008A8000030AC00B101A82C310803195C2C5D2C78
:1008B8007D2C0130A0000310A50DA60DA70DA80DD5
:1008C800A00B5F2C0130A0000310F60DF70DF80DFA
:1008D800F90DA00B682CAF1F722C732C742C761496
:1008E8000130A0000310AC0DAD0DAE0DAF0DA00B87
:1008F800762C75082802031D8B2C74082702031D0B
:100908008B2C73082602031D8B2C72082502031CEE
:100918008E2C8F2CA42C2F177208A5027308031C89
:10092800730F972C982CA6027408031C740F9D2C27
:100938009E2CA7027508031C750FA32CA42CA802D3
:100948000130A0002008B1071A303102031CAD2C79
:10095800AE2C582C28082704260425040319B52C86
:10096800B62CD52C2C14D52C0130A0000310F60D74
:10097800F70DF80DF90DA00BBA2CAF1FC42CC52C20
:10098800C62C76140130A0000310AC0DAD0DAE0DD1
:10099800AF0DA00BC82CFF30AA070318AB0AFF3015
:1009A800AB07F81FD82CD92CB82CB101AF1FDD2C00
:1009B800DE2CFA2CFF302C05A000FF302D05A100FD
:1009C800FF302E05A2007F302F05A3002308220444
:1009D800210420040319F12CF22CF52CB101B10AE1
:1009E800FA2C761CF82CF92CFA2CF22C3108031965
:1009F800FE2CFF2C302D0130F60700300318013093
:100A0800F707003003180130F807003003180130E9
:100A1800F907791C102D112D302D7608A0007708C4
:100A2800A1007808A2007908A3000130A400230DD2
:100A3800A30CA20CA10CA00CA40B1B2D2308F900DD
:100A48002208F8002108F7002008F6000130AA075C
:100A58000318AB0A0030AB072B08803AFF00803040
:100A68007F02031D392DFF302A02031C3C2D3D2D2A
:100A78004B2DFF3083120313AA000030AB00003067
:100A8800F9000030F8000030F7000030F60083125B
:100A980003132B08803AFF0080307F02031D562D78
:100AA80001302A020318592D5A2D672D831203137A
:100AB800AA01AB010030F9000030F8000030F7005F
:100AC8000030F600A901831203132A08A0002008A9
:100AD800B000301C702D712D732DF817772D7F30D5
:100AE800A0002008F8053008A0000310200CA10081
:100AF8002108F9002908A0002008F904152C08008D
:100B08000A128A15D6230A128A110A128A15E523AF
:100B18000A128A110A128A152C250A128A118316BA
:100B280003134408803AFF0080307F02031D9E2D86
:100B380065304302031CA12DA22DAB2D0A128A1584
:100B4800C0260A128A1183160313C301C4010A12AC
:100B58008A1556270A128A11831203134C08E500D6
:100B68004B08E4006508A1006408A0006E08F300C3
:100B78006D08F2006430F4000030F5000A128A159E
:100B880063240A128A11730883120313A3007208DC
:100B9800A2000A128A1521240A128A116430F2006E
:100BA8000030F300831203136508F5006408F400AD
:100BB8000A128A15DB250A128A11831203136E089A
:100BC8007306031DE92D6D087206031DEC2DED2D2E
:100BD800932D6F080319F12DF22D932D0A30A400DF
:100BE8000030A500E830F2000330F3006508F50096
:100BF8006408F4000A128A15DB250A128A117308A0
:100C080083120313A7007208A6000A128A1580250A
:100C18000A128A11831203132408303ECD004D08AE
:100C2800EA000A30A4000030A5006430F200003069
:100C3800F3006508F5006408F4000A128A15DB253C
:100C48000A128A11730883120313A7007208A600F8
:100C58000A128A1580250A128A118312031324089E
:100C6800303ECD004D08E9000A30A4000030A50050
:100C78000A30F2000030F3006508F5006408F4005B
:100C88000A128A15DB250A128A11730883120313C4
:100C9800A7007208A6000A128A1580250A128A116E
:100CA800831203132408303ECD004D08E8000A30B3
:100CB800A4000030A5006508A7006408A6000A1271
:100CC8008A1580250A128A11831203132408303EDC
:100CD800CD004D0883160313C50001300A128A158A
:100CE80088240A128A115D308400AC308312031301
:100CF800CD000408CE000730CF004D0884008313D0
:100D08000008D000CD0A4E08840050088000CE0AA2
:100D1800CF0B812E5D300A128A1542240A128A11DD
:100D2800831203136A080A128A15C6230A128A1143
:100D38008312031369080A128A15C6230A128A1134
:100D4800DF300A128A15C6230A128A1143300A12A2
:100D58008A15C6230A128A11C0300A128A158824F5
:100D68000A128A1151308400A03083120313CD0077
:100D78000408CE000C30CF004D088400831300080F
:100D8800D000CD0A4E08840050088000CE0ACF0B50
:100D9800C02E0A30F2000030F3006E08F5006D082E
:100DA800F4000A128A15DB250A128A117208303EED
:100DB80083120313CD004D08E7000A30A400003069
:100DC800A5006E08A7006D08A6000A128A158025DE
:100DD8000A128A11831203132408303ECD004D08ED
:100DE800E60051300A128A1542240A128A11831227
:100DF800031367080A128A15C6230A128A11831276
:100E0800031366080A128A15C6230A128A11DF30EC
:100E18000A128A15C6230A128A1143300A128A1541
:100E2800C6230A128A1183120313EF01932D0A12A3
:100E38008A110C2883120313A00020080319252FF8
:100E4800262F3A2FF51F292F2A2F3A2F7209A20091
:100E58007309A3007409A4007509A500A20A03195F
:100E6800A30A0319A40A0319A50A422F7508A500A5
:100E78007408A4007308A3007208A200750874041B
:100E880073047204031D492F4A2F532F0030F500B5
:100E98000030F4000030F3000030F200D92F963013
:100EA800F6007608A100652F0130F6007608A10744
:100EB80001300310A50CA40CA30CA20CFF3E031DCB
:100EC8005D2FFE302505031D6A2F6B2F582F872FA6
:100ED8000130F6007608A1070130A2070030031898
:100EE8000130A307003003180130A40700300318AD
:100EF8000130A50701300310A50CA40CA30CA20C0B
:100F0800FF3E031D7F2FFF302505031D8C2F8D2FDE
:100F18006C2F992F0130A1020130F6000310A20DA9
:100F2800A30DA40DA50DF60B922FA41B9C2F9D2F8E
:100F3800A32F023021020318A22FA32F8E2F2118CE
:100F4800A62FA72FAF2FFF30A205FF30A3057F30B4
:100F5800A405FF30A5050310A10C2108F600F70130
:100F6800F801F90118300310F60DF70DF80DF90D19
:100F7800FF3E031DB72F7608A2047708A30478085C
:100F8800A4047908A50420080319CB2FCC2FD12F4E
:100F9800F51FCF2FD02FD12FA5172508F50024082E
:100FA800F4002308F3002208F2000800F500831675
:100FB800031388010508043885007508F400023019
:100FC8000310F40DFF3E031DE42F0310740D83126C
:100FD80003131F049F001F0804389F001F08FB39D4
:100FE8000319F72FF82FF22F1E08F30083160313A7
:060FF8001E08F2000800D3
:1010000008308A000408840A820700340834043453
:0A10100002340134FE34FD34FB34D9
:101786001E3400340134F50075080A128A15B02497
:101796000A128A15080064008001840A04060319E7
:1017A60000340406CF2B83160313880189018601B2
:1017B6008501A0308B0002308100063083120313AE
:1017C600810008008316031305080438850091304C
:1017D600831203139F008A30831603139F0035304C
:1017E600F200F20BF42B08007E088A007F088200C4
:1017F6000A128A15F7230A128A158000840A040839
:101806007D0603190034FF0A0319FE0AFB2B533425
:1018160065347434203450346F3469346E3474341F
:101826003A3420340034543465346D3470343A34E8
:1018360020340034FF34FF34FF34FF34831603139F
:101846000708DF398700831203132308803AF8005C
:101856002108803A7802031D322C20082202031840
:10186600352C362C3C2C831203130708DF398700EE
:10187600412C831203130708203887000800F8005C
:10188600F601F701572C76087807F50075088400ED
:1018960000080A128A15B0240A128A150130F607C2
:1018A6000318F70A0030F70776087807F500750879
:1018B600840083130008031D612C622C462C08004B
:1018C600F601F701721C682C692C6F2C7408F60758
:1018D6000318F70A7508F70701300310F40DF50D24
:1018E600FF3E031D702C01300310F30CF20CFF3E7B
:1018F600031D772C72087304031D822C832C652C20
:101906007708F3007608F2000800F4008312031348
:10191600090802388900740888000908FB3989001B
:101926002030F3002930F200F20B972CF30B972CA2
:101936009C2C831203130908FD3989002030F3001B
:101946002930F200F20BA52CF30BA52CAA2C83123E
:1019560003130908023889000800F40083120313F0
:1019660009080238890074088800090804388900C3
:101976002030F3002930F200F20BBF2CF30BBF2C02
:10198600C42C831203130908FD3989002030F300A3
:101996002930F200F20BCD2CF30BCD2CD22C831276
:1019A6000313090802388900080083120313A400F0
:1019B600A001A1017208F400F5017408A2007508DF
:1019C600A300241CE72CE82CEE2C2208A007031801
:1019D600A10A2308A10701300310A20DA30DFF3EA3
:1019E600031DEF2C0310A40C2408031DFB2CFC2C58
:1019F600E42C2108F3002008F20008000B1D042D3A
:101A0600052D252D013083160313C3070318C40AB9
:101A16000030C4070130C1070318C20A0030C207EC
:101A2600831203136B080319192D1A2D222D013069
:101A360083160313BF070318C00A0030C0070B083C
:101A4600FB398B0071088A00700E8300FE0E7E0E35
:101A56000900831203138901D030F600C930F5005E
:101A6600F50B332DF60B332D382D8312031309088E
:101A76000238890038300A128A1588240A128A1513
:101A86003430F600F130F500F50B472DF60B472DF7
:101A96004C2D38300A128A1588240A128A150B3002
:101AA600F6006230F500F50B562DF60B562D0000AC
:101AB60038300A128A1588240A128A1508300A1242
:101AC6008A1588240A128A150F300A128A15882464
:101AD6000A128A1501300A128A1588240A128A15F2
:101AE6000E300A128A1588240A128A1580300A12C4
:101AF6008A1588240A128A150800F901831203132D
:101B0600A71F862D872D8E2DA609A709A60A0319BC
:101B1600A70AF901F90AA51F912D922D972DA4095F
:101B2600A509A40A0319A50A2408250403199C2D4E
:101B36009D2DCC2DF801F80AAB2D01300310A40D14
:101B4600A50DFF3E031DA12D0130F7007708F8070C
:101B5600A51FAE2DAF2DA02D25082702031DB52DDF
:101B660024082602031CB82DB92DBF2D2408A60271
:101B76002508031CA703A70201300310A50CA40C1B
:101B8600FF3E031DC02D0130F802031DCB2DCC2DC9
:101B9600AF2D79080319D02DD12DD62DA609A70969
:101BA600A60A0319A70A2708A5002608A400080004
:101BB60083120313A101F31FE12DE22DE92DF20992
:101BC600F309F20A0319F30AA101A10AF51FEC2D84
:101BD600ED2DF62DF409F509F40A0319F50A01307D
:101BE600F6007608A106A201A30172087304031980
:101BF600FD2DFE2D352EA001A00A0C2E013003105E
:101C0600F20DF30DFF3E031D022E0130F60076089D
:101C1600A007F31F0F2E102E012E01300310A20D68
:101C2600A30DFF3E031D112E73087502031D1D2E05
:101C360072087402031C202E212E282E7208F4022C
:101C46007308031CF503F502221401300310F30C8C
:101C5600F20CFF3E031D292E0130A002031D342E77
:101C6600352E102E21080319392E3A2E3F2EA209A1
:101C7600A309A20A0319A30A2308F3002208F20003
:101C86000800031083120313420D430DC4004408D9
:101C9600CA004A08031D502E512E5A2E0030C3008A
:101CA6000030C2000030C1000030C000BF2E400826
:101CB600C4004108C5004208C6004308C7001F30DB
:101CC6000310C70CC60CC50CC40CFF3E031D632EC7
:101CD6004408C8004808C900C217FF30C005FF30D5
:101CE600C105FF30C2050030C3059630CA02CA1FBF
:101CF6007D2E7E2E982E4A08803A973E0318842E13
:101D0600852E862E512E01300310C30CC20CC10C39
:101D1600C00CFF3E031D872E0130C4004408CA07CD
:101D2600031D962E972E862EAF2E20304A02031CB8
:101D36009D2E9E2EAA2E512E0130C4000310C00DDA
:101D4600C10DC20DC30DC40BA12E0130CA024A0833
:101D5600031DAE2EAF2E9F2E49080319B32EB42EA7
:101D6600BF2EC009C109C209C309C00A0319C10AA5
:101D76000319C20A0319C30A080083120313850153
:101D8600FF30831603138800FF3083120313880085
:101D9600FB01831203130608073886007B08053EFD
:101DA60084000A128A1500200A128A15F2007208A7
:101DB6008605FA017A08013E84000A128A15002077
:101DC6000A128A158312031308050319EB2EEC2E4B
:101DD600F12E6B080319F02EF12E412FEB01EB0AC1
:101DE6007A08013E84000A128A1500200A128A1512
:101DF6000805031DFF2E002F412F831603134008ED
:101E0600803AFF0080307F02031D0B2F02303F0215
:101E1600031C0E2F0F2F412F7B08F20002300310F8
:101E2600F20DFF3E031D122F7A087207F3007308A6
:101E360083120313EC00EB0183160313BF01C001E9
:101E46000330831203136C06031D2A2F2B2F342F06
:101E56000130ED070318EE0A0030EE07EF01EF0A36
:101E6600412F0B306C06031D392F3A2F412FFF30BF
:101E7600ED070318EE0AFF30EE07312F0130F200AE
:101E86007208FA0704307A02031C4A2F4B2FDD2E04
:101E96000130F2007208FB0703307B02031C542F4B
:101EA600552FCC2E080002300A128A11DA270A12A0
:101EB6008A15730883160313B4007208B300403002
:101EC60083120313A9009C30A8003F30A700FB3003
:101ED600A600831603133308F2003408F30000301B
:101EE600F31BFF30F400F50001300A128A111E2799
:101EF6000A128A15750883120313AD007408AC0024
:101F06007308AB007208AA000A128A1140200A124E
:101F16008A1583120313290883160313BE0083123E
:101F26000313280883160313BD008312031327081F
:101F360083160313BC0083120313260883160313A8
:101F4600BB004130F5002030F4000030F3000030D3
:101F5600F2003E08F9003D08F8003C08F7003B088F
:101F6600F6000A128A11A1230A128A157508831629
:101F76000313BA007408B9007308B8007208B700F2
:101F86003A0883120313AD0083160313390883122C
:101F96000313AC0083160313380883120313AB0034
:101FA60083160313370883120313AA004230A900CD
:101FB600C830A8000030A7000030A6000A128A1117
:101FC60040200A128A15831203132908C300280821
:101FD600C2002708C1002608C0000A128A15442636
:101FE6000A128A15831203134108E5004008E4002B
:0A1FF6006508CC006408CB00080069
:02400E00F23F7F
:00000001FF
