:020000040000FA
:020000001028C6
:10000800FE00030EFA000408FB000A08FC00831235
:1000180003137F08FD001B281128F001F101F201EC
:10002800F301F401F501F601F7018301A9280B1D7D
:100038001E281F28862870087104031924282628DA
:10004800013027280030F800F9017808F000790815
:10005800F1000130F6070318F70A0030F7077003BC
:100068007104031D3828392842287408013E840089
:10007800932086000608103886004A287208013E38
:100088008400932086000608EF3986007708803AB6
:10009800FF009F307F02031D532841307602031C66
:1000A800562857288328F601F7010130F40703186A
:1000B800F50A0030F5077508803AFF0080307F02A6
:1000C800031D68280A307402031C6B286C288328D7
:1000D800F401F5010130F2070318F30A0030F307C1
:1000E8007308803AFF0080307F02031D7D280A30A4
:1000F8007202031C802881288328F201F3010B086F
:10010800FB398B007D0883120313FF007C088A00EB
:100118007B0884007A0E8300FE0E7E0E09000030F4
:100128008A000408840A82070034EE342834CD3467
:100138006D342B346734E7342C34EF346F34AF34F8
:10014800E334C634E934C73487348316031386018D
:10015800831203138601A0308B0008308316031323
:060168008100B5281028FB
:02400E00623F0F
:00000001FF
