:020000040000FA
:02000000F42FDB
:100DC0007E088A007F088200E0268000840A0408EA
:100DD0007D0603190034FF0A0319FE0AE42E0134CC
:100DE00002340434083410342034403480348134E4
:100DF0008234843488349034A034C034C134C23452
:100E0000C434C834D034E034E134E234E434E83477
:100E1000F034F134F234F434F834F934FA34FC3484
:100E2000FD34FE34FF34043083160313850086013D
:100E3000831203138601CA01C701C801C90120300A
:100E40008400A030F0000408F1002430F2007008A3
:100E5000840083130008F300F00A7108840073080B
:100E60008000F10AF20B272F83120313051D392F7F
:100E70003B2F01303C2F0030F0007008CB004B03BB
:100E8000031D432F442F772F4A08031D482F492F56
:100E9000772F3430F100F130F000F00B4D2FF10BD3
:100EA0004D2F522F83120313051D572F592F013039
:100EB0005A2F0030F0007008CB004B03031D612F48
:100EC000622F772F4A08031D662F672F772F470859
:100ED00003196B2F6D2F01306E2F0030F00070085A
:100EE000C7000130C8070318C90A0030C9074B08FA
:100EF000F0007008CA00023048064904031D812F23
:100F0000822FE62FC801C901E62FCC01CD014D0883
:100F1000803AFF0080307F02031D902F08304C0282
:100F2000031C932F942F952F342F0330F00083123E
:100F300003134C0A9D2F0310F00DFF3E031D9B2F42
:100F4000700886000230F2000430F100BA30F00080
:100F5000F00BA82FF10BA82FF20BA82F00000130E7
:100F600083120313CC070318CD0A0030CD07872F57
:100F7000CC01CD014D08803AFF0080307F02031D77
:100F8000C32F24304C02031CC62FC72FC82F342F69
:100F9000831203134C08203E84008313000886004C
:100FA0000230F2000430F100BA30F000F00BD62F1E
:100FB000F10BD62FF20BD62F000001308312031352
:100FC000CC070318CD0A0030CD07BA2F4908003AE4
:100FD0000319EB2F342F4808003A0319852F013AE3
:100FE0000319B82F342F00288313C430FD000630B6
:100FF000FE00EF30FF00A0308400E4268301132FB1
:02400E00623F0F
:00000001FF
