:020000040000FA
:060000000A128A1110280B
:10000800FE00030EF0000A08F100831203137F08B4
:10001800F2000A128A11EA2B0A128A1113280A120C
:100028008A117D250A128A11C3000A128A117E25B7
:100038000A128A11C4000A128A117F250A128A112B
:10004800C5000A128A1180250A128A11C600831374
:10005800A0308400D2300A128A116D250A128A1142
:100068002030840034300A128A116D250A128A1150
:10007800F801F901FA0183010A128A11872C831207
:1000880003134608013E84000A128A1157240A12F3
:100098008A11013A031D512852287B282E08031D76
:1000A800562857287B28AE01AE0A183084000A1259
:1000B8008A1157240A128A110A128A1175250A12FE
:1000C8008A11183084000A128A1157240A128A11D8
:1000D80083120313C0002008A03E84004008831345
:1000E80080000130A0070318A10A0030A1074608C4
:1000F800013E84000A128A1157240A128A11023A10
:10010800031D87288828B1282E08031D8C288D28D0
:10011800B128AE01AE0A193084000A128A11572498
:100128000A128A110A128A1175250A128A111830C0
:1001380084000A128A1157240A128A11831203139F
:10014800C0002008A03E84004008831380000130CE
:10015800A0070318A10A0030A1074608013E840041
:100168000A128A1157240A128A11033A031DBD285C
:10017800BE28E7282E08031DC228C328E728AE0199
:10018800AE0A1A3084000A128A1157240A128A11F8
:100198000A128A1175250A128A11183084000A1267
:1001A8008A1157240A128A1183120313C0002008E7
:1001B800A03E84004008831380000130A007031884
:1001C800A10A0030A1074608013E84000A128A11DC
:1001D80057240A128A11043A031DF328F4281D290A
:1001E8002E08031DF828F9281D29AE01AE0A1B3078
:1001F80084000A128A1157240A128A110A128A11D3
:1002080075250A128A11183084000A128A11572497
:100218000A128A1183120313C0002008A03E84002A
:100228004008831380000130A0070318A10A00309A
:10023800A1074608013E84000A128A1157240A12AF
:100248008A11053A031D29292A2953292E08031D35
:100258002E292F295329AE01AE0A1C3084000A1218
:100268008A1157240A128A110A128A1175250A124C
:100278008A11183084000A128A1157240A128A1126
:1002880083120313C0002008A03E84004008831393
:1002980080000130A0070318A10A0030A107460812
:1002A800013E84000A128A1157240A128A11063A5A
:1002B800031D5F29602989292E08031D64296529E2
:1002C8008929AE01AE0A1D3084000A128A1157240A
:1002D8000A128A110A128A1175250A128A1118300F
:1002E80084000A128A1157240A128A1183120313EE
:1002F800C0002008A03E840040088313800001301D
:10030800A0070318A10A0030A1074608013E84008F
:100318000A128A1157240A128A11073A031D9529CD
:100328009629BF292E08031D9A299B29BF29AE01AA
:10033800AE0A1E3084000A128A1157240A128A1142
:100348000A128A1175250A128A11183084000A12B5
:100358008A1157240A128A1183120313C000200835
:10036800A03E84004008831380000130A0070318D2
:10037800A10A0030A1074608013E84000A128A112A
:1003880057240A128A11083A031DCB29CC29F529CA
:100398002E08031DD029D129F529AE01AE0A1F3038
:1003A80084000A128A1157240A128A110A128A1121
:1003B80075250A128A11183084000A128A115724E6
:1003C8000A128A1183120313C0002008A03E840079
:1003D8004008831380000130A0070318A10A0030E9
:1003E800A1074608013E84000A128A1157240A12FE
:1003F8008A11093A031D012A022A2B2A2E08031DF5
:10040800062A072A2B2AAE01AE0A203084000A12D7
:100418008A1157240A128A110A128A1175250A129A
:100428008A11183084000A128A1157240A128A1174
:1004380083120313C0002008A03E840040088313E1
:1004480080000130A0070318A10A0030A107460860
:10045800013E84000A128A1157240A128A11003AAE
:10046800031D372A382A612A2E08031D3C2A3D2AF3
:10047800612AAE01AE0A173084000A128A11572485
:100488000A128A110A128A1175250A128A1118305D
:1004980084000A128A1157240A128A11831203133C
:1004A800C0002008A03E840040088313800001306B
:1004B800A0070318A10A0030A1070A128A116722AF
:1004C8000A128A110800831203132508803AFF00D4
:1004D80082307F02031D722A003024020318752A15
:1004E800762ACD2A831203134608013E84000A1295
:1004F8008A1157240A128A112A3A031D842A852A46
:10050800A22A2E08031D892A8A2AA22AAE01AE0A27
:100518002B300A128A1175250A128A112B30831280
:100528000313BF002008A03E84003F088313800007
:100538000130A0070318A10A0030A1074608013EB0
:1005480084000A128A1157240A128A11233A031DB9
:10055800AE2AAF2A1E2B2E08031DB32AB42A1E2B3F
:10056800AE01AE0A2D300A128A1175250A128A11B7
:100578002D3083120313BF002008A03E84003F08DB
:10058800831380000130A0070318A10A0030A107D7
:100598001E2B831203134608013E84000A128A1197
:1005A80057240A128A112A3A031DDB2ADC2AF92A5F
:1005B8002E08031DE02AE12AF92AAE01AE0A2630E8
:1005C8000A128A1175250A128A112630831203131A
:1005D800BF002008A03E84003F088313800001303C
:1005E800A0070318A10A0030A1074608013E8400AD
:1005F8000A128A1157240A128A11233A031D052B5D
:10060800062B1E2B2E08031D0A2B0B2B1E2BAE01AF
:10061800AE0A7C300A128A1175250A128A117C30BA
:1006280083120313BF002008A03E84003F088313F1
:100638008000C62A0A128A1162250A128A11080045
:100648008316031386010F30880083120313B30146
:100658000608073886003308253E84000A128A11E6
:1006680057240A128A11C10041088605B2013208CE
:10067800213E84000A128A1157240A128A11080599
:100688000319472B482B4D2B310803194C2B4D2BA5
:10069800802BB101B10A3208213E84000A128A1166
:1006A80057240A128A110805031D5B2B5C2B802B2B
:1006B8002908803AFF0080307F02031D652B023035
:1006C8002802031C682B692B802B83120313330821
:1006D800C10002300310C10DFF3E031D6E2B32080E
:1006E8004107C2004208C600B101A801A9010A12C7
:1006F8008A1143200A128A11013083120313C100A0
:100708004108B20704303202031C8B2B8C2B3B2B85
:100718000130C1004108B30703303302031C952B95
:10072800962B2C2B08008312031309080239890021
:100738000908043989006830F700E430F600F60B40
:10074800A32BF70BA32B000083120313090802380D
:10075800890038300A128A11DF240A128A111A30E5
:10076800F700F830F600F60BB72BF70BB72B0000A5
:1007780038300A128A11DF240A128A110630F7006B
:100788003030F600F60BC62BF70BC62B00003830BE
:100798000A128A11DF240A128A110F300A128A11EA
:1007A800DF240A128A1101300A128A11DF240A1280
:1007B8008A110E300A128A11DF240A128A11803037
:1007C8000A128A11DF240A128A1108000B1DED2B68
:1007D800EE2B1B2C2E03031DF22BF32B0B2C0130BD
:1007E800A6070318A70A0030A7072708803AFF00C2
:1007F80080307F02031D022C1A302602031C052CB0
:10080800062C0B2C83120313A601A701AE01831239
:10081800031331080319112C122C182C0130A807C6
:100828000318A90A0030A9070B08FB398B007208C6
:10083800FF0071088A00700E8300FE0E7E0E09000C
:1008480083120313B601B701442C36087607B400A7
:1008580037080318370A7707B50034088400831768
:10086800351C831300080A128A11B4240A128A114B
:10087800013083120313B6070318B70A0030B7070D
:1008880036087607B40037080318370A7707B50023
:10089800340884008317351C83130008031D552C66
:1008A800562C292C080004308A000408840A820780
:1008B80000340134043407342A340234053408344B
:1008C800003403340634093423343F3406345B34AB
:1008D8004F3466346D347D3407347F346F343034AC
:1008E80031343234333434343534363437343834BC
:1008F80039340834043402340134FE34FD34FB3412
:100908002D343E3400340A128A1155250A128A11F0
:100918000A128A1143250A128A110A128A11972388
:100928000A128A1180300A128A11DF240A128A11E7
:1009380000300A128A110A250A128A1174088312D1
:100948000313A5007308A4002408860088010A126E
:100958008A1124230A128A119C2C0A128A1110283F
:10096800F50083160313880183120313090802385C
:100978008900750888000908043889001030F400D7
:100988009430F300F30BC62CF40BC62C0000831232
:1009980003130908FD3989001030F4009430F3007E
:1009A800F30BD42CF40BD42C000083120313090886
:1009B800023889000800F5008316031388018312A2
:1009C8000313090802388900750888000908FB39EB
:1009D80089001030F4009430F300F30BF12CF40B81
:1009E800F12C0000831203130908FD398900103027
:1009F800F4009430F300F30BFF2CF40BFF2C0000F1
:100A0800831203130908023889000800F6008316C8
:100A180003130508043885007608F5000230031032
:100A2800F50DFF3E031D132D0310750D83120313DF
:100A38001F049F001F0804389F001F08FB39031973
:100A4800262D272D212D1E08F400831603131E08BA
:100A5800F3000800F600F501761C332D342D382DEF
:100A68007308F4007408F5070310F30D0310F60C6F
:100A78007608031D402D412D302D75080800FF30E4
:100A88008316031385008130831203139F008E3071
:100A9800831603139F001A30F300F30B512D000047
:100AA80008008316031387018901A0308B000630E4
:100AB8008100063083120313810008000430831676
:100AC80003138600403083120313B8003808B000BF
:100AD800080064008001840A04060319003404062F
:100AE8006E2DF60076080A128A11B4240A128A11A9
:0A0AF80008002A3423343D3463342F
:02400E00F23F7F
:00000001FF
