:020000040000FA
:060000000A128A110C280F
:10000800FE00030EF9000A08FA000A128A11AD2848
:100018000A128A110F280A128A11C5200A128A1197
:10002800FB00A001A101F001F101F201F301F401CB
:10003800F501F601F701F80183010A128A11242853
:10004800063083120313810083160313850186018A
:100058008801A0308B0002308100831203138501D0
:10006800860188017308803AFF0080307F02031DF3
:100078003F2804307202031C422843285528F20105
:10008800F3017008710403194A284C2801304D28DF
:10009800003083120313A200A3012208F0002308F2
:1000A800F1007008710403195A285B285F2883122D
:1000B8000313861765287F3083120313A2002208D2
:1000C8008605F030A2002208831603138805203025
:1000D8008312031385007B08113E84000A128A11DB
:1000E80084200A128A11013E84000A128A1184208F
:1000F8000A128A118800850136280A128A110C28EA
:1001080000308A000408840A820700343F34063429
:100118005B344F3466346D347D3407347F346F3448
:1001280077347C3439345E347934713401340434AE
:1001380007342A34023405340834003403340634CE
:10014800093423340834043402340134FE34FD34D1
:10015800FB340B1DB028B128BE280130F207031864
:10016800F30A0030F30706308312031381000B08EB
:10017800FB398B007A088A00790E8300FE0E7E0E0A
:0401880009006334D3
:02400E00F23F7F
:00000001FF
