:020000040000FA
:020000000E28C8
:10000800FE00030EFA000A08FB00831203137F08A0
:10001800FC001E280F280821AA000921AB00831321
:10002800203084002A30002170308400783000218C
:100038008301EE280B1D21282228E5280130F60728
:100048000318F70A0030F7077708803AFF0087306F
:100058007F02031D3128D0307602031C342835284E
:100068004C28831203132A032B04031D3C283D2824
:100078004328AA01AB010608023986004A28013044
:10008800AA000030AB00060801388600F601F70127
:100098008312031326032704031D532854287428A6
:1000A8000130F4070318F50A0030F5077508803A9F
:1000B800FF0093307F02031D632888307402031CFD
:1000C80066286728742883120313060802388600F6
:1000D800F401F501A601A7010130A4000030A50034
:1000E8008312031324032504031D7B287C289828E6
:1000F8000130A8070318A90A0030A9072908803A7F
:10010800FF008F307F02031D8B28A0302802031CBC
:100118008E288F28982883120313A801A901A40107
:10012800A50106080139860083120313051D9D28C1
:100138009F280130A0280030F800F9017808F20063
:100148007908F30072037304031DAB28AC28DE287A
:1001580070087104031DB128B228DE28051DB528D2
:10016800B7280130B8280030F800F9017808F20003
:100178007908F30072037304031DC328C428DE281A
:1001880070087104031DC928CA28DE282208230420
:100198000319CF28D1280130D2280030F800F901FE
:1001A8007808A2007908A3000130A6000030A70053
:1001B800F401F5017308F1007208F0000B08FB392F
:1001C8008B007C08FF007B088A007A0E8300FE0EF5
:1001D8007E0E090006308312031381008316031371
:1001E8008601831203138601A0308B000230831628
:1001F80003138100FE280E2864008001840A040687
:0C020800031900340406012901340034FD
:02400E00623F0F
:00000001FF
