:020000040000FA
:020000000A28CC
:10000800FE00030EF1000A08F2008F280B28B62024
:10001800F700B720F800A401A501F501F601830156
:100028001528A0308B000730831603138100860142
:10003800FF308312031386000430831603138500F0
:10004800F501F6018312051D2A282C2801302D28D8
:100058000030F300F4017308A2007408A30022031F
:100068002304031D38283928872820082104031D64
:100078003E283F2887283430F400F130F300F30B92
:100088004328F40B4328482883120313051D4D28E1
:100098004F28013050280030F300F4017308A20003
:1000A8007408A30022032304031D5B285C28872807
:1000B80020082104031D6128622887280130A4072D
:1000C8000318A50A0030A5077808F4007708F3009C
:1000D8007308F7070318F80A7408F8072508803A20
:1000E800FF0080307F02031D7B2804302402031C9C
:1000F8007E287F28872883120313A401A5010F30C7
:10010800F7000030F800831203132308A100220827
:10011800A00026280A280B1D92289328AF28013012
:10012800F5070318F60A0030F6077808803AF00059
:100138007608803A7002031DA32875087702031811
:10014800A628A728AC28831203138609F501F6010F
:100158000B08FB398B0072088A00710E8300FE0EB3
:080168007E0E09000F34003483
:02400E00623F0F
:00000001FF
